:100000000C9470000C9487000C9487000C9487006B
:100010000C9487000C9487000C9487000C94870044
:100020000C9487000C9487000C9487000C94870034
:100030000C9487000C9487000C9487000C94870024
:100040000C9487000C9487000C9487000C94870014
:100050000C9487000C9487000C9487000C94870004
:100060000C9487000C9487000C9487000C948700F4
:100070000C9487000C9487000C9487000C948700E4
:100080000C9487000C9487000C9487000C948700D4
:100090000C9487000C9487000C9487000C948700C4
:1000A0000C9487000C9487000C9487000C948700B4
:1000B0000C9487000C9487000C9487000C948700A4
:1000C0000C9487000C9487000C9487000C94870094
:1000D0000C9487000C9487000C9487000C94870084
:1000E00011241FBECFEFCDBFDFE7DEBF0E948B0024
:0800F0000C947C00F894FFCF92
:1000F800EC010E948D000E948C00CE010E948E00AF
:06010800CE010E948900F7
:04010E000C9400004D
:040112000E947A00CD
:02011600FFCF19
:02011800089548
:02011A00089546
:04011C000895000042
:00000001FF
